{
  "_format": "hh-sol-artifact-1",
  "contractName": "DappMrkt",
  "sourceName": "contracts/DappMrkt.sol",
  "abi": [
    {
      "inputs": [
        {
          "internalType": "uint256",
          "name": "_taxPercent",
          "type": "uint256"
        },
        {
          "internalType": "uint256",
          "name": "_securityFee",
          "type": "uint256"
        }
      ],
      "stateMutability": "nonpayable",
      "type": "constructor"
    },
    {
      "anonymous": false,
      "inputs": [
        {
          "indexed": true,
          "internalType": "address",
          "name": "previousOwner",
          "type": "address"
        },
        {
          "indexed": true,
          "internalType": "address",
          "name": "newOwner",
          "type": "address"
        }
      ],
      "name": "OwnershipTransferred",
      "type": "event"
    },
    {
      "inputs": [
        {
          "internalType": "uint256",
          "name": "aid",
          "type": "uint256"
        },
        {
          "internalType": "string",
          "name": "reviewText",
          "type": "string"
        },
        {
          "internalType": "uint256",
          "name": "rating",
          "type": "uint256"
        }
      ],
      "name": "addReview",
      "outputs": [],
      "stateMutability": "nonpayable",
      "type": "function"
    },
    {
      "inputs": [
        {
          "internalType": "uint256",
          "name": "aid",
          "type": "uint256"
        },
        {
          "internalType": "uint256",
          "name": "purchaseId",
          "type": "uint256"
        }
      ],
      "name": "approveProduct",
      "outputs": [],
      "stateMutability": "nonpayable",
      "type": "function"
    },
    {
      "inputs": [
        {
          "internalType": "uint256",
          "name": "aid",
          "type": "uint256"
        },
        {
          "internalType": "uint256[]",
          "name": "dates",
          "type": "uint256[]"
        }
      ],
      "name": "buyProduct",
      "outputs": [],
      "stateMutability": "payable",
      "type": "function"
    },
    {
      "inputs": [
        {
          "internalType": "string",
          "name": "name",
          "type": "string"
        },
        {
          "internalType": "string",
          "name": "description",
          "type": "string"
        },
        {
          "internalType": "string",
          "name": "location",
          "type": "string"
        },
        {
          "internalType": "string",
          "name": "images",
          "type": "string"
        },
        {
          "internalType": "uint256",
          "name": "listings",
          "type": "uint256"
        },
        {
          "internalType": "uint256",
          "name": "price",
          "type": "uint256"
        },
        {
          "internalType": "string",
          "name": "category",
          "type": "string"
        }
      ],
      "name": "createProduct",
      "outputs": [],
      "stateMutability": "nonpayable",
      "type": "function"
    },
    {
      "inputs": [
        {
          "internalType": "uint256",
          "name": "productId",
          "type": "uint256"
        }
      ],
      "name": "customerPurchased",
      "outputs": [
        {
          "internalType": "bool",
          "name": "",
          "type": "bool"
        }
      ],
      "stateMutability": "view",
      "type": "function"
    },
    {
      "inputs": [
        {
          "internalType": "uint256",
          "name": "id",
          "type": "uint256"
        }
      ],
      "name": "deleteProduct",
      "outputs": [],
      "stateMutability": "nonpayable",
      "type": "function"
    },
    {
      "inputs": [
        {
          "internalType": "uint256",
          "name": "id",
          "type": "uint256"
        }
      ],
      "name": "getProduct",
      "outputs": [
        {
          "components": [
            {
              "internalType": "uint256",
              "name": "id",
              "type": "uint256"
            },
            {
              "internalType": "string",
              "name": "name",
              "type": "string"
            },
            {
              "internalType": "string",
              "name": "description",
              "type": "string"
            },
            {
              "internalType": "string",
              "name": "location",
              "type": "string"
            },
            {
              "internalType": "string",
              "name": "images",
              "type": "string"
            },
            {
              "internalType": "uint256",
              "name": "listings",
              "type": "uint256"
            },
            {
              "internalType": "uint256",
              "name": "price",
              "type": "uint256"
            },
            {
              "internalType": "string",
              "name": "category",
              "type": "string"
            },
            {
              "internalType": "address",
              "name": "owner",
              "type": "address"
            },
            {
              "internalType": "bool",
              "name": "purchased",
              "type": "bool"
            },
            {
              "internalType": "bool",
              "name": "deleted",
              "type": "bool"
            },
            {
              "internalType": "uint256",
              "name": "timestamp",
              "type": "uint256"
            }
          ],
          "internalType": "struct DappMrkt.ProductStruct",
          "name": "",
          "type": "tuple"
        }
      ],
      "stateMutability": "view",
      "type": "function"
    },
    {
      "inputs": [],
      "name": "getProducts",
      "outputs": [
        {
          "components": [
            {
              "internalType": "uint256",
              "name": "id",
              "type": "uint256"
            },
            {
              "internalType": "string",
              "name": "name",
              "type": "string"
            },
            {
              "internalType": "string",
              "name": "description",
              "type": "string"
            },
            {
              "internalType": "string",
              "name": "location",
              "type": "string"
            },
            {
              "internalType": "string",
              "name": "images",
              "type": "string"
            },
            {
              "internalType": "uint256",
              "name": "listings",
              "type": "uint256"
            },
            {
              "internalType": "uint256",
              "name": "price",
              "type": "uint256"
            },
            {
              "internalType": "string",
              "name": "category",
              "type": "string"
            },
            {
              "internalType": "address",
              "name": "owner",
              "type": "address"
            },
            {
              "internalType": "bool",
              "name": "purchased",
              "type": "bool"
            },
            {
              "internalType": "bool",
              "name": "deleted",
              "type": "bool"
            },
            {
              "internalType": "uint256",
              "name": "timestamp",
              "type": "uint256"
            }
          ],
          "internalType": "struct DappMrkt.ProductStruct[]",
          "name": "Products",
          "type": "tuple[]"
        }
      ],
      "stateMutability": "view",
      "type": "function"
    },
    {
      "inputs": [
        {
          "internalType": "uint256",
          "name": "aid",
          "type": "uint256"
        },
        {
          "internalType": "uint256",
          "name": "purchaseId",
          "type": "uint256"
        }
      ],
      "name": "getPurchase",
      "outputs": [
        {
          "components": [
            {
              "internalType": "uint256",
              "name": "id",
              "type": "uint256"
            },
            {
              "internalType": "uint256",
              "name": "aid",
              "type": "uint256"
            },
            {
              "internalType": "address",
              "name": "customer",
              "type": "address"
            },
            {
              "internalType": "uint256",
              "name": "date",
              "type": "uint256"
            },
            {
              "internalType": "uint256",
              "name": "price",
              "type": "uint256"
            },
            {
              "internalType": "bool",
              "name": "checked",
              "type": "bool"
            },
            {
              "internalType": "bool",
              "name": "cancelled",
              "type": "bool"
            }
          ],
          "internalType": "struct DappMrkt.PurchaseStruct",
          "name": "",
          "type": "tuple"
        }
      ],
      "stateMutability": "view",
      "type": "function"
    },
    {
      "inputs": [
        {
          "internalType": "uint256",
          "name": "aid",
          "type": "uint256"
        }
      ],
      "name": "getPurchases",
      "outputs": [
        {
          "components": [
            {
              "internalType": "uint256",
              "name": "id",
              "type": "uint256"
            },
            {
              "internalType": "uint256",
              "name": "aid",
              "type": "uint256"
            },
            {
              "internalType": "address",
              "name": "customer",
              "type": "address"
            },
            {
              "internalType": "uint256",
              "name": "date",
              "type": "uint256"
            },
            {
              "internalType": "uint256",
              "name": "price",
              "type": "uint256"
            },
            {
              "internalType": "bool",
              "name": "checked",
              "type": "bool"
            },
            {
              "internalType": "bool",
              "name": "cancelled",
              "type": "bool"
            }
          ],
          "internalType": "struct DappMrkt.PurchaseStruct[]",
          "name": "",
          "type": "tuple[]"
        }
      ],
      "stateMutability": "view",
      "type": "function"
    },
    {
      "inputs": [
        {
          "internalType": "uint256",
          "name": "aid",
          "type": "uint256"
        }
      ],
      "name": "getQualifiedReviewers",
      "outputs": [
        {
          "internalType": "address[]",
          "name": "Customers",
          "type": "address[]"
        }
      ],
      "stateMutability": "view",
      "type": "function"
    },
    {
      "inputs": [
        {
          "internalType": "uint256",
          "name": "aid",
          "type": "uint256"
        }
      ],
      "name": "getReviews",
      "outputs": [
        {
          "components": [
            {
              "internalType": "uint256",
              "name": "id",
              "type": "uint256"
            },
            {
              "internalType": "uint256",
              "name": "aid",
              "type": "uint256"
            },
            {
              "internalType": "string",
              "name": "reviewText",
              "type": "string"
            },
            {
              "internalType": "uint256",
              "name": "rating",
              "type": "uint256"
            },
            {
              "internalType": "uint256",
              "name": "timestamp",
              "type": "uint256"
            },
            {
              "internalType": "address",
              "name": "owner",
              "type": "address"
            }
          ],
          "internalType": "struct DappMrkt.ReviewStruct[]",
          "name": "",
          "type": "tuple[]"
        }
      ],
      "stateMutability": "view",
      "type": "function"
    },
    {
      "inputs": [
        {
          "internalType": "uint256",
          "name": "aid",
          "type": "uint256"
        }
      ],
      "name": "getUnavailableDates",
      "outputs": [
        {
          "internalType": "uint256[]",
          "name": "",
          "type": "uint256[]"
        }
      ],
      "stateMutability": "view",
      "type": "function"
    },
    {
      "inputs": [],
      "name": "owner",
      "outputs": [
        {
          "internalType": "address",
          "name": "",
          "type": "address"
        }
      ],
      "stateMutability": "view",
      "type": "function"
    },
    {
      "inputs": [
        {
          "internalType": "uint256",
          "name": "aid",
          "type": "uint256"
        },
        {
          "internalType": "uint256",
          "name": "purchaseId",
          "type": "uint256"
        }
      ],
      "name": "refundPurchase",
      "outputs": [],
      "stateMutability": "nonpayable",
      "type": "function"
    },
    {
      "inputs": [],
      "name": "renounceOwnership",
      "outputs": [],
      "stateMutability": "nonpayable",
      "type": "function"
    },
    {
      "inputs": [],
      "name": "securityFee",
      "outputs": [
        {
          "internalType": "uint256",
          "name": "",
          "type": "uint256"
        }
      ],
      "stateMutability": "view",
      "type": "function"
    },
    {
      "inputs": [],
      "name": "taxPercent",
      "outputs": [
        {
          "internalType": "uint256",
          "name": "",
          "type": "uint256"
        }
      ],
      "stateMutability": "view",
      "type": "function"
    },
    {
      "inputs": [
        {
          "internalType": "address",
          "name": "newOwner",
          "type": "address"
        }
      ],
      "name": "transferOwnership",
      "outputs": [],
      "stateMutability": "nonpayable",
      "type": "function"
    },
    {
      "inputs": [
        {
          "internalType": "uint256",
          "name": "id",
          "type": "uint256"
        },
        {
          "internalType": "string",
          "name": "name",
          "type": "string"
        },
        {
          "internalType": "string",
          "name": "description",
          "type": "string"
        },
        {
          "internalType": "string",
          "name": "location",
          "type": "string"
        },
        {
          "internalType": "string",
          "name": "images",
          "type": "string"
        },
        {
          "internalType": "uint256",
          "name": "listings",
          "type": "uint256"
        },
        {
          "internalType": "uint256",
          "name": "price",
          "type": "uint256"
        },
        {
          "internalType": "string",
          "name": "category",
          "type": "string"
        }
      ],
      "name": "updateProduct",
      "outputs": [],
      "stateMutability": "nonpayable",
      "type": "function"
    }
  ],
  "bytecode": "0x60806040523480156200001157600080fd5b506040516200348a3803806200348a8339810160408190526200003491620000a2565b6200003f3362000052565b60018055600491909155600355620000c7565b600080546001600160a01b038381166001600160a01b0319831681178455604051919092169283917f8be0079c531659141344cd1fd0a4f28419497f9722a3daafe3b4186f6b6457e09190a35050565b60008060408385031215620000b657600080fd5b505080516020909101519092909150565b6133b380620000d76000396000f3fe60806040526004361061011f5760003560e01c80639c057846116100a0578063c29b2f2011610064578063c29b2f201461036f578063d68e130214610391578063db2f80b7146103a7578063ed90c7b7146103d4578063f2fde38b146103f457600080fd5b80639c057846146102c25780639d4a2255146102e2578063ad3df6bb1461030f578063b9db15b414610322578063ba545d621461034f57600080fd5b8063715018a6116100e7578063715018a6146101f65780637541f41c1461020b57806384aa4a8e1461022f5780638da5cb5b1461027a57806394cdf85f146102a257600080fd5b80630bb9ce33146101245780631ed7bf1c1461015a57806336b970b41461017c5780633bc701841461019c5780636f629ed5146101c9575b600080fd5b34801561013057600080fd5b5061014461013f3660046129cf565b610414565b60405161015191906129e8565b60405180910390f35b34801561016657600080fd5b5061017a610175366004612a35565b6105bd565b005b34801561018857600080fd5b5061017a610197366004612b0e565b610939565b3480156101a857600080fd5b506101bc6101b7366004612a35565b61109f565b6040516101519190612c4b565b3480156101d557600080fd5b506101e96101e43660046129cf565b611143565b6040516101519190612c59565b34801561020257600080fd5b5061017a611209565b34801561021757600080fd5b5061022160045481565b604051908152602001610151565b34801561023b57600080fd5b5061026a61024a3660046129cf565b336000908152600b60209081526040808320938352929052205460ff1690565b6040519015158152602001610151565b34801561028657600080fd5b506000546040516001600160a01b039091168152602001610151565b3480156102ae57600080fd5b5061017a6102bd366004612c9b565b61121d565b3480156102ce57600080fd5b5061017a6102dd366004612a35565b611497565b3480156102ee57600080fd5b506103026102fd3660046129cf565b61165a565b6040516101519190612d31565b61017a61031d366004612dd9565b611794565b34801561032e57600080fd5b5061034261033d3660046129cf565b611a64565b6040516101519190612f74565b34801561035b57600080fd5b5061017a61036a366004612f8e565b611dca565b34801561037b57600080fd5b5061038461215d565b6040516101519190613073565b34801561039d57600080fd5b5061022160035481565b3480156103b357600080fd5b506103c76103c23660046129cf565b6125ca565b60405161015191906130d5565b3480156103e057600080fd5b5061017a6103ef3660046129cf565b61262c565b34801561040057600080fd5b5061017a61040f36600461310d565b612717565b60606000805b60008481526006602052604090205481101561048c57600084815260066020526040902080548290811061045057610450613136565b600091825260209091206005600690920201015460ff161561047a578161047681613162565b9250505b8061048481613162565b91505061041a565b508067ffffffffffffffff8111156104a6576104a6612a57565b6040519080825280602002602001820160405280156104cf578160200160208202803683370190505b5091506000805b6000858152600660205260409020548110156105b557600085815260066020526040902080548290811061050c5761050c613136565b600091825260209091206005600690920201015460ff16156105a357600085815260066020526040902080548290811061054857610548613136565b60009182526020909120600260069092020101546001600160a01b0316848361057081613162565b94508151811061058257610582613136565b60200260200101906001600160a01b031690816001600160a01b0316815250505b806105ad81613162565b9150506104d6565b505050919050565b6105c5612790565b60008281526006602052604081208054839081106105e5576105e5613136565b60009182526020918290206040805160e08101825260069093029091018054835260018101549383019390935260028301546001600160a01b031690820152600382015460608201526004820154608082015260059091015460ff80821615801560a085015261010090920416151560c08301529091506106815760405162461bcd60e51b81526004016106789061317b565b60405180910390fd5b6000838152600a602090815260408083206060850151845290915290205460ff166106ee5760405162461bcd60e51b815260206004820152601e60248201527f446964206e6f74207075726368617365206f6e207468697320646174652100006044820152606401610678565b6000546001600160a01b0316331461075e5780604001516001600160a01b0316336001600160a01b03161461075e5760405162461bcd60e51b8152602060048201526016602482015275556e617574686f72697a656420637573746f6d65722160501b6044820152606401610678565b60008381526006602052604090208054600191908490811061078257610782613136565b6000918252602080832060056006909302019190910180549315156101000261ff001990941693909317909255848152600a82526040808220606085015183528352808220805460ff19169055858252600990925290812054905b818110156108cf576060830151600086815260096020526040902080548390811061080a5761080a613136565b9060005260206000200154036108bd5760008581526009602052604090206108336001846131c0565b8154811061084357610843613136565b906000526020600020015460096000878152602001908152602001600020828154811061087257610872613136565b9060005260206000200181905550600960008681526020019081526020016000208054806108a2576108a26131d3565b600190038181906000526020600020016000905590556108cf565b806108c781613162565b9150506107dd565b506000606460035484608001516108e691906131e9565b6108f09190613200565b600086815260056020526040902060080154909150819061091a906001600160a01b0316826127e9565b6109283385608001516127e9565b5050505061093560018055565b5050565b60008881526008602052604090205460ff1615156001146109905760405162461bcd60e51b8152602060048201526011602482015270141c9bd91d58dd081b9bdd08199bdd5b99607a1b6044820152606401610678565b6000888152600560205260409020600801546001600160a01b03163314610a045760405162461bcd60e51b815260206004820152602260248201527f556e617574686f72697a656420706572736f6e6e656c2c206f776e6572206f6e6044820152616c7960f01b6064820152608401610678565b6000875111610a4c5760405162461bcd60e51b81526020600482015260146024820152734e616d652063616e6e6f7420626520656d70747960601b6044820152606401610678565b6000865111610a9d5760405162461bcd60e51b815260206004820152601b60248201527f4465736372697074696f6e2063616e6e6f7420626520656d70747900000000006044820152606401610678565b6000855111610ae95760405162461bcd60e51b81526020600482015260186024820152774c6f636174696f6e2063616e6e6f7420626520656d70747960401b6044820152606401610678565b6000845111610b335760405162461bcd60e51b8152602060048201526016602482015275496d616765732063616e6e6f7420626520656d70747960501b6044820152606401610678565b60008311610b7d5760405162461bcd60e51b81526020600482015260176024820152764c697374696e67732063616e6e6f74206265207a65726f60481b6044820152606401610678565b60008211610bc45760405162461bcd60e51b815260206004820152601460248201527350726963652063616e6e6f74206265207a65726f60601b6044820152606401610678565b6000815111610c105760405162461bcd60e51b815260206004820152601860248201527743617465676f72792063616e6e6f7420626520656d70747960401b6044820152606401610678565b6000600560008a81526020019081526020016000206040518061018001604052908160008201548152602001600182018054610c4b90613222565b80601f0160208091040260200160405190810160405280929190818152602001828054610c7790613222565b8015610cc45780601f10610c9957610100808354040283529160200191610cc4565b820191906000526020600020905b815481529060010190602001808311610ca757829003601f168201915b50505050508152602001600282018054610cdd90613222565b80601f0160208091040260200160405190810160405280929190818152602001828054610d0990613222565b8015610d565780601f10610d2b57610100808354040283529160200191610d56565b820191906000526020600020905b815481529060010190602001808311610d3957829003601f168201915b50505050508152602001600382018054610d6f90613222565b80601f0160208091040260200160405190810160405280929190818152602001828054610d9b90613222565b8015610de85780601f10610dbd57610100808354040283529160200191610de8565b820191906000526020600020905b815481529060010190602001808311610dcb57829003601f168201915b50505050508152602001600482018054610e0190613222565b80601f0160208091040260200160405190810160405280929190818152602001828054610e2d90613222565b8015610e7a5780601f10610e4f57610100808354040283529160200191610e7a565b820191906000526020600020905b815481529060010190602001808311610e5d57829003601f168201915b505050505081526020016005820154815260200160068201548152602001600782018054610ea790613222565b80601f0160208091040260200160405190810160405280929190818152602001828054610ed390613222565b8015610f205780601f10610ef557610100808354040283529160200191610f20565b820191906000526020600020905b815481529060010190602001808311610f0357829003601f168201915b505050918352505060088201546001600160a01b03811660208084019190915260ff600160a01b830481161515604080860191909152600160a81b9093041615156060808501919091526009909401546080938401528481018d81528583018d90529385018b905291840189905260a0840188905260c0840187905260e0840186905260008d81526005909252902082518155905191925082916001820190610fc990826132aa565b5060408201516002820190610fde90826132aa565b5060608201516003820190610ff390826132aa565b506080820151600482019061100890826132aa565b5060a0820151600582015560c0820151600682015560e0820151600782019061103190826132aa565b506101008201516008820180546101208501516101408601511515600160a81b0260ff60a81b19911515600160a01b026001600160a81b03199093166001600160a01b0390951694909417919091171691909117905561016090910151600990910155505050505050505050565b6110a7612917565b60008381526006602052604090208054839081106110c7576110c7613136565b60009182526020918290206040805160e08101825260069093029091018054835260018101549383019390935260028301546001600160a01b031690820152600382015460608201526004820154608082015260059091015460ff808216151560a084015261010090910416151560c082015290505b92915050565b606060066000838152602001908152602001600020805480602002602001604051908101604052809291908181526020016000905b828210156111fe5760008481526020908190206040805160e08101825260068602909201805483526001808201548486015260028201546001600160a01b03169284019290925260038101546060840152600481015460808401526005015460ff808216151560a085015261010090910416151560c08301529083529092019101611178565b505050509050919050565b61121161284e565b61121b60006128a8565b565b60008381526008602052604090205460ff166112735760405162461bcd60e51b815260206004820152601560248201527450726f64756374206e6f7420617661696c61626c6560581b6044820152606401610678565b336000908152600b6020908152604080832086845290915290205460ff166112dd5760405162461bcd60e51b815260206004820152601c60248201527f5075726368617365206669727374206265666f726520726576696577000000006044820152606401610678565b600082511161132e5760405162461bcd60e51b815260206004820152601b60248201527f52657669657720746578742063616e6e6f7420626520656d70747900000000006044820152606401610678565b60018110158015611340575060058111155b61138c5760405162461bcd60e51b815260206004820152601e60248201527f526174696e67206d757374206265206265747765656e203120616e64203500006044820152606401610678565b6113ce6040518060c00160405280600081526020016000815260200160608152602001600081526020016000815260200160006001600160a01b031681525090565b6020808201859052600085815260079091526040908190205482528101839052606081018290526113fd6128f8565b60808201523360a082015260008481526007602090815260408083208054600181810183559185529383902085516006909502019384559184015191830191909155820151829190600282019061145490826132aa565b50606082015160038201556080820151600482015560a090910151600590910180546001600160a01b0319166001600160a01b0390921691909117905550505050565b60008281526006602052604081208054839081106114b7576114b7613136565b60009182526020918290206040805160e08101825260069093029091018054835260018101549383019390935260028301546001600160a01b0316908201819052600383015460608301526004830154608083015260059092015460ff808216151560a084015261010090910416151560c0820152915033146115755760405162461bcd60e51b8152602060048201526016602482015275556e617574686f72697a656420637573746f6d65722160501b6044820152606401610678565b8060a00151156115975760405162461bcd60e51b81526004016106789061317b565b6000838152600660205260409020805460019190849081106115bb576115bb613136565b60009182526020822060069190910201600501805460ff19169215159290921790915560035460808301516064916115f2916131e9565b6115fc9190613200565b336000908152600b602090815260408083208884528252808320805460ff191660011790556005909152902060080154608084015191925061164a916001600160a01b0391909116906127e9565b61165433826127e9565b50505050565b606060076000838152602001908152602001600020805480602002602001604051908101604052809291908181526020016000905b828210156111fe57838290600052602060002090600602016040518060c001604052908160008201548152602001600182015481526020016002820180546116d690613222565b80601f016020809104026020016040519081016040528092919081815260200182805461170290613222565b801561174f5780601f106117245761010080835404028352916020019161174f565b820191906000526020600020905b81548152906001019060200180831161173257829003601f168201915b50505091835250506003820154602080830191909152600483015460408301526005909201546001600160a01b0316606090910152908252600192909201910161168f565b60008281526008602052604090205460ff166117e75760405162461bcd60e51b815260206004820152601260248201527150726f64756374206e6f7420666f756e642160701b6044820152606401610678565b60035481516000848152600560205260409020600601546064929161180b916131e9565b61181591906131e9565b61181f9190613200565b815160008481526005602052604090206006015461183d91906131e9565b611847919061336a565b34101561188b5760405162461bcd60e51b8152602060048201526012602482015271496e73756666696369656e742066756e642160701b6044820152606401610678565b60005b8151811015611a375761189f612917565b602080820185905260008581526006909152604090819020548252339082015282518390839081106118d3576118d3613136565b60209081029190910181015160608301908152600086815260058084526040808320600690810154608088019081528a85528187528285208054600181810183559187528887208a51919094029093019283558888015183820155838901516002840180546001600160a01b039092166001600160a01b03199092169190911790559551600383015551600482015560a08701519201805460c088015115156101000261ff00199415159490941661ffff199091161792909217909155878252600a9093529182208551919290918690869081106119b3576119b3613136565b6020026020010151815260200190815260200160002060006101000a81548160ff02191690831515021790555060096000858152602001908152602001600020838381518110611a0557611a05613136565b602090810291909101810151825460018101845560009384529190922001555080611a2f81613162565b91505061188e565b50805160008381526005602081905260408220018054909190611a5b9084906131c0565b90915550505050565b611a6c612961565b600560008381526020019081526020016000206040518061018001604052908160008201548152602001600182018054611aa590613222565b80601f0160208091040260200160405190810160405280929190818152602001828054611ad190613222565b8015611b1e5780601f10611af357610100808354040283529160200191611b1e565b820191906000526020600020905b815481529060010190602001808311611b0157829003601f168201915b50505050508152602001600282018054611b3790613222565b80601f0160208091040260200160405190810160405280929190818152602001828054611b6390613222565b8015611bb05780601f10611b8557610100808354040283529160200191611bb0565b820191906000526020600020905b815481529060010190602001808311611b9357829003601f168201915b50505050508152602001600382018054611bc990613222565b80601f0160208091040260200160405190810160405280929190818152602001828054611bf590613222565b8015611c425780601f10611c1757610100808354040283529160200191611c42565b820191906000526020600020905b815481529060010190602001808311611c2557829003601f168201915b50505050508152602001600482018054611c5b90613222565b80601f0160208091040260200160405190810160405280929190818152602001828054611c8790613222565b8015611cd45780601f10611ca957610100808354040283529160200191611cd4565b820191906000526020600020905b815481529060010190602001808311611cb757829003601f168201915b505050505081526020016005820154815260200160068201548152602001600782018054611d0190613222565b80601f0160208091040260200160405190810160405280929190818152602001828054611d2d90613222565b8015611d7a5780601f10611d4f57610100808354040283529160200191611d7a565b820191906000526020600020905b815481529060010190602001808311611d5d57829003601f168201915b505050918352505060088201546001600160a01b038116602083015260ff600160a01b8204811615156040840152600160a81b909104161515606082015260099091015460809091015292915050565b6000875111611e125760405162461bcd60e51b81526020600482015260146024820152734e616d652063616e6e6f7420626520656d70747960601b6044820152606401610678565b6000865111611e635760405162461bcd60e51b815260206004820152601b60248201527f4465736372697074696f6e2063616e6e6f7420626520656d70747900000000006044820152606401610678565b6000855111611eaf5760405162461bcd60e51b81526020600482015260186024820152774c6f636174696f6e2063616e6e6f7420626520656d70747960401b6044820152606401610678565b6000845111611ef95760405162461bcd60e51b8152602060048201526016602482015275496d616765732063616e6e6f7420626520656d70747960501b6044820152606401610678565b60008311611f435760405162461bcd60e51b81526020600482015260176024820152764c697374696e67732063616e6e6f74206265207a65726f60481b6044820152606401610678565b60008211611f8a5760405162461bcd60e51b815260206004820152601460248201527350726963652063616e6e6f74206265207a65726f60601b6044820152606401610678565b6000815111611fd65760405162461bcd60e51b815260206004820152601860248201527743617465676f72792063616e6e6f7420626520656d70747960401b6044820152606401610678565b611fe4600280546001019055565b611fec612961565b60025481526020810188905260408101879052606081018690526080810185905260a0810184905260c0810183905260e08101829052336101008201526120316128f8565b61016082015280516000908152600860205260408120805460ff19166001179055819060059061206060025490565b81526020808201929092526040016000208251815590820151600182019061208890826132aa565b506040820151600282019061209d90826132aa565b50606082015160038201906120b290826132aa565b50608082015160048201906120c790826132aa565b5060a0820151600582015560c0820151600682015560e082015160078201906120f090826132aa565b506101008201516008820180546101208501516101408601511515600160a81b0260ff60a81b19911515600160a01b026001600160a81b03199093166001600160a01b03909516949094179190911716919091179055610160909101516009909101555050505050505050565b6060600060015b60025481116121ad57600081815260056020526040902060080154600160a81b900460ff1661219b578161219781613162565b9250505b806121a581613162565b915050612164565b508067ffffffffffffffff8111156121c7576121c7612a57565b60405190808252806020026020018201604052801561220057816020015b6121ed612961565b8152602001906001900390816121e55790505b509150600060015b60025481116125c457600081815260056020526040902060080154600160a81b900460ff166125b25760056000828152602001908152602001600020604051806101800160405290816000820154815260200160018201805461226a90613222565b80601f016020809104026020016040519081016040528092919081815260200182805461229690613222565b80156122e35780601f106122b8576101008083540402835291602001916122e3565b820191906000526020600020905b8154815290600101906020018083116122c657829003601f168201915b505050505081526020016002820180546122fc90613222565b80601f016020809104026020016040519081016040528092919081815260200182805461232890613222565b80156123755780601f1061234a57610100808354040283529160200191612375565b820191906000526020600020905b81548152906001019060200180831161235857829003601f168201915b5050505050815260200160038201805461238e90613222565b80601f01602080910402602001604051908101604052809291908181526020018280546123ba90613222565b80156124075780601f106123dc57610100808354040283529160200191612407565b820191906000526020600020905b8154815290600101906020018083116123ea57829003601f168201915b5050505050815260200160048201805461242090613222565b80601f016020809104026020016040519081016040528092919081815260200182805461244c90613222565b80156124995780601f1061246e57610100808354040283529160200191612499565b820191906000526020600020905b81548152906001019060200180831161247c57829003601f168201915b5050505050815260200160058201548152602001600682015481526020016007820180546124c690613222565b80601f01602080910402602001604051908101604052809291908181526020018280546124f290613222565b801561253f5780601f106125145761010080835404028352916020019161253f565b820191906000526020600020905b81548152906001019060200180831161252257829003601f168201915b505050918352505060088201546001600160a01b038116602083015260ff600160a01b8204811615156040840152600160a81b9091041615156060820152600990910154608090910152848361259481613162565b9450815181106125a6576125a6613136565b60200260200101819052505b806125bc81613162565b915050612208565b50505090565b60008181526009602090815260409182902080548351818402810184019094528084526060939283018282801561262057602002820191906000526020600020905b81548152602001906001019080831161260c575b50505050509050919050565b60008181526008602052604090205460ff1615156001146126835760405162461bcd60e51b8152602060048201526011602482015270141c9bd91d58dd081b9bdd08199bdd5b99607a1b6044820152606401610678565b6000818152600560205260409020600801546001600160a01b031633146126e25760405162461bcd60e51b8152602060048201526013602482015272556e617574686f72697a656420656e7469747960681b6044820152606401610678565b6000908152600860208181526040808420805460ff19169055600590915290912001805460ff60a81b1916600160a81b179055565b61271f61284e565b6001600160a01b0381166127845760405162461bcd60e51b815260206004820152602660248201527f4f776e61626c653a206e6577206f776e657220697320746865207a65726f206160448201526564647265737360d01b6064820152608401610678565b61278d816128a8565b50565b6002600154036127e25760405162461bcd60e51b815260206004820152601f60248201527f5265656e7472616e637947756172643a207265656e7472616e742063616c6c006044820152606401610678565b6002600155565b6000826001600160a01b03168260405160006040518083038185875af1925050503d8060008114612836576040519150601f19603f3d011682016040523d82523d6000602084013e61283b565b606091505b505090508061284957600080fd5b505050565b6000546001600160a01b0316331461121b5760405162461bcd60e51b815260206004820181905260248201527f4f776e61626c653a2063616c6c6572206973206e6f7420746865206f776e65726044820152606401610678565b600080546001600160a01b038381166001600160a01b0319831681178455604051919092169283917f8be0079c531659141344cd1fd0a4f28419497f9722a3daafe3b4186f6b6457e09190a35050565b6000612906426103e86131e9565b612912906103e861336a565b905090565b6040518060e00160405280600081526020016000815260200160006001600160a01b0316815260200160008152602001600081526020016000151581526020016000151581525090565b604051806101800160405280600081526020016060815260200160608152602001606081526020016060815260200160008152602001600081526020016060815260200160006001600160a01b03168152602001600015158152602001600015158152602001600081525090565b6000602082840312156129e157600080fd5b5035919050565b6020808252825182820181905260009190848201906040850190845b81811015612a295783516001600160a01b031683529284019291840191600101612a04565b50909695505050505050565b60008060408385031215612a4857600080fd5b50508035926020909101359150565b634e487b7160e01b600052604160045260246000fd5b604051601f8201601f1916810167ffffffffffffffff81118282101715612a9657612a96612a57565b604052919050565b600082601f830112612aaf57600080fd5b813567ffffffffffffffff811115612ac957612ac9612a57565b612adc601f8201601f1916602001612a6d565b818152846020838601011115612af157600080fd5b816020850160208301376000918101602001919091529392505050565b600080600080600080600080610100898b031215612b2b57600080fd5b88359750602089013567ffffffffffffffff80821115612b4a57600080fd5b612b568c838d01612a9e565b985060408b0135915080821115612b6c57600080fd5b612b788c838d01612a9e565b975060608b0135915080821115612b8e57600080fd5b612b9a8c838d01612a9e565b965060808b0135915080821115612bb057600080fd5b612bbc8c838d01612a9e565b955060a08b0135945060c08b0135935060e08b0135915080821115612be057600080fd5b50612bed8b828c01612a9e565b9150509295985092959890939650565b80518252602080820151908301526040808201516001600160a01b031690830152606080820151908301526080808201519083015260a08082015115159083015260c0908101511515910152565b60e0810161113d8284612bfd565b6020808252825182820181905260009190848201906040850190845b81811015612a2957612c88838551612bfd565b9284019260e09290920191600101612c75565b600080600060608486031215612cb057600080fd5b83359250602084013567ffffffffffffffff811115612cce57600080fd5b612cda86828701612a9e565b925050604084013590509250925092565b6000815180845260005b81811015612d1157602081850181015186830182015201612cf5565b506000602082860101526020601f19601f83011685010191505092915050565b60006020808301818452808551808352604092508286019150828160051b87010184880160005b83811015612dcb57603f19898403018552815160c0815185528882015189860152878201518189870152612d8e82870182612ceb565b606084810151908801526080808501519088015260a0938401516001600160a01b0316939096019290925250509386019390860190600101612d58565b509098975050505050505050565b60008060408385031215612dec57600080fd5b8235915060208084013567ffffffffffffffff80821115612e0c57600080fd5b818601915086601f830112612e2057600080fd5b813581811115612e3257612e32612a57565b8060051b9150612e43848301612a6d565b8181529183018401918481019089841115612e5d57600080fd5b938501935b83851015612e7b57843582529385019390850190612e62565b8096505050505050509250929050565b6000610180825184526020830151816020860152612eab82860182612ceb565b91505060408301518482036040860152612ec58282612ceb565b91505060608301518482036060860152612edf8282612ceb565b91505060808301518482036080860152612ef98282612ceb565b91505060a083015160a085015260c083015160c085015260e083015184820360e0860152612f278282612ceb565b91505061010080840151612f45828701826001600160a01b03169052565b505061012083810151151590850152610140808401511515908501526101609283015192909301919091525090565b602081526000612f876020830184612e8b565b9392505050565b600080600080600080600060e0888a031215612fa957600080fd5b873567ffffffffffffffff80821115612fc157600080fd5b612fcd8b838c01612a9e565b985060208a0135915080821115612fe357600080fd5b612fef8b838c01612a9e565b975060408a013591508082111561300557600080fd5b6130118b838c01612a9e565b965060608a013591508082111561302757600080fd5b6130338b838c01612a9e565b955060808a0135945060a08a0135935060c08a013591508082111561305757600080fd5b506130648a828b01612a9e565b91505092959891949750929550565b6000602080830181845280855180835260408601915060408160051b870101925083870160005b828110156130c857603f198886030184526130b6858351612e8b565b9450928501929085019060010161309a565b5092979650505050505050565b6020808252825182820181905260009190848201906040850190845b81811015612a29578351835292840192918401916001016130f1565b60006020828403121561311f57600080fd5b81356001600160a01b0381168114612f8757600080fd5b634e487b7160e01b600052603260045260246000fd5b634e487b7160e01b600052601160045260246000fd5b6000600182016131745761317461314c565b5060010190565b60208082526025908201527f50726f6475637420616c726561647920636865636b6564206f6e207468697320604082015264646174652160d81b606082015260800190565b8181038181111561113d5761113d61314c565b634e487b7160e01b600052603160045260246000fd5b808202811582820484141761113d5761113d61314c565b60008261321d57634e487b7160e01b600052601260045260246000fd5b500490565b600181811c9082168061323657607f821691505b60208210810361325657634e487b7160e01b600052602260045260246000fd5b50919050565b601f82111561284957600081815260208120601f850160051c810160208610156132835750805b601f850160051c820191505b818110156132a25782815560010161328f565b505050505050565b815167ffffffffffffffff8111156132c4576132c4612a57565b6132d8816132d28454613222565b8461325c565b602080601f83116001811461330d57600084156132f55750858301515b600019600386901b1c1916600185901b1785556132a2565b600085815260208120601f198616915b8281101561333c5788860151825594840194600190910190840161331d565b508582101561335a5787850151600019600388901b60f8161c191681555b5050505050600190811b01905550565b8082018082111561113d5761113d61314c56fea26469706673582212206ee5154a1107d11d3db6f041b5ddd82858f218fefaee22d12bed450f25833bcd64736f6c63430008130033",
  "linkReferences": {},
  "deployedLinkReferences": {}
}